{
  "contractName": "Migrations",
  "abi": [
    {
      "inputs": [],
      "payable": false,
      "stateMutability": "nonpayable",
      "type": "constructor"
    },
    {
      "constant": true,
      "inputs": [],
      "name": "lastCompletedMigration",
      "outputs": [
        {
          "internalType": "uint256",
          "name": "",
          "type": "uint256"
        }
      ],
      "payable": false,
      "stateMutability": "view",
      "type": "function"
    },
    {
      "constant": true,
      "inputs": [],
      "name": "owner",
      "outputs": [
        {
          "internalType": "address",
          "name": "",
          "type": "address"
        }
      ],
      "payable": false,
      "stateMutability": "view",
      "type": "function"
    },
    {
      "constant": false,
      "inputs": [
        {
          "internalType": "uint256",
          "name": "completed",
          "type": "uint256"
        }
      ],
      "name": "setCompleted",
      "outputs": [],
      "payable": false,
      "stateMutability": "nonpayable",
      "type": "function"
    },
    {
      "constant": false,
      "inputs": [
        {
          "internalType": "address",
          "name": "new_address",
          "type": "address"
        }
      ],
      "name": "upgrade",
      "outputs": [],
      "payable": false,
      "stateMutability": "nonpayable",
      "type": "function"
    }
  ],
  "bytecode": "0x608060405234801561001057600080fd5b5060008054600160a060020a031916331790556101b9806100326000396000f3fe608060405234801561001057600080fd5b506004361061004f5760e060020a60003504630900f01081146100545780638da5cb5b1461007c578063fbdbad3c146100a0578063fdacd576146100ba575b600080fd5b61007a6004803603602081101561006a57600080fd5b5035600160a060020a03166100d7565b005b610084610157565b60408051600160a060020a039092168252519081900360200190f35b6100a8610166565b60408051918252519081900360200190f35b61007a600480360360208110156100d057600080fd5b503561016c565b600054600160a060020a031633141561015457600081905080600160a060020a031663fdacd5766001546040518263ffffffff1660e060020a02815260040180828152602001915050600060405180830381600087803b15801561013a57600080fd5b505af115801561014e573d6000803e3d6000fd5b50505050505b50565b600054600160a060020a031681565b60015481565b600054600160a060020a03163314156101545760015556fea265627a7a7231582087f20c8bd9fbe3e0d44856751514bd4b8073af6be1d69be2b039c322b5785dc664736f6c634300050c0032",
  "source": "pragma solidity 0.5.12;\n\ncontract Migrations {\n    address public owner;\n    uint public lastCompletedMigration;\n\n    constructor() public {\n        owner = msg.sender;\n    }\n\n    modifier restricted() {\n        if (msg.sender == owner) _;\n    }\n\n    function setCompleted(uint completed) external restricted {\n        lastCompletedMigration = completed;\n    }\n\n    function upgrade(address new_address) external restricted {\n        Migrations upgraded = Migrations(new_address);\n        upgraded.setCompleted(lastCompletedMigration);\n    }\n}\n",
  "sourcePath": "/home/julien/src/python-eth-tools/eth-balancer/external/balancer-core/contracts/Migrations.sol",
  "compiler": {
    "name": "solc",
    "version": "0.5.12+commit.7709ece9.Emscripten.clang"
  },
  "schemaVersion": "3.0.16",
  "updatedAt": "2021-02-13T14:13:21.542Z",
  "devdoc": {
    "methods": {}
  },
  "userdoc": {
    "methods": {}
  }
}